:100000000C942F000C9400000C9400000C94000041
:100010000C9400000C9400000C9400000C94000060
:100020000C9400000C9400000C9400000C94000050
:100030000C9400000C9400000C9400000C94000040
:100040000C9400000C9400000C9400000C94000030
:040050000C9400000C
:10005E00BFE5BDBFB8E0BEBF0E947400BFEFBABB24
:10006E0040E050E00AE010E04017510744F59A01D5
:10007E00220F331F00E610E0F901E00FF11F00819F
:10008E000BBB26E013E10EEA0A95F1F71A95E1F79C
:10009E002A95D1F700000000009176000BBB26E0F8
:1000AE0013E10EEA0A95F1F71A95E1F72A95D1F7C1
:1000BE00000000008A010F5F1F4FA801D3CFD0CFE1
:0200CE00FFCF62
:0A00540005900D920197E1F7089561
:1000E800A0E6B0E0E0EDF0E088E190E00E942A00B0
:0200F800089569
:1000D000400079002400300019001200020078006E
:0600E0000000100000000A
:0200E600FF0019
:00000001FF
