:100000000C9452000C9400000C9400000C9400001E
:100010000C9400000C9400000C9400000C94000060
:100020000C9400000C9400000C9400000C94000050
:100030000C9400000C9400000C9400000C94000040
:100040000C9400000C9400000C9400000C94000030
:040050000C9400000C
:1000A400BFE5BDBFB8E0BEBF0E94A7002F923F923C
:1000B400BFEFBABBB1E02B2EB0E03B2ECEDFB2E0F7
:1000C4002B2EB0E03B2EC9DFBAE02B2EB0E03B2E46
:1000D400C4DFB2E02B2EB0E03B2EBFDF222433245A
:1000E400BCDFB9E02B2EB0E03B2EB7DFB7E02B2E00
:1000F400B0E03B2EB2DFB8E02B2EB0E03B2EADDFFC
:10010400BAE02B2EB0E03B2EA8DFB1E02B2EB0E0FE
:100114003B2EA3DF2BE016E20EE50A95F1F71A95C4
:10012400E1F72A95D1F700000000C4CF3F902F904B
:02013400FFCFFB
:10005E009101220F331F00E610E0F901E00FF11FAE
:10006E0000810BBB26E013E10EEA0A95F1F71A9513
:10007E00E1F72A95D1F700000000BFEFBBBB23E0EC
:10008E001AE806E50A95F1F71A95E1F72A95D1F7E0
:06009E00000000000895BF
:0A00540005900D920197E1F7089561
:10014E00A0E6B0E0E6E3F1E088E190E00E942A004C
:02015E00089502
:100136004000790024003000190012000200780007
:08014600000010003F00000062
:00000001FF
