:100000000C9494000C9400000C9400000C940000DC
:100010000C9400000C9400000C9400000C94000060
:100020000C9400000C9400000C9400000C94000050
:100030000C9400000C9400000C9400000C94000040
:100040000C9400000C9400000C9400000C94000030
:040050000C9400000C
:10012800BFE5BDBFB8E0BEBF0E9463022F923F92F9
:10013800BFEFBABBBFEFB4BBBFEFB1BB13E008E979
:100148000A95F1F71A95E1F70000B8E32B2EBEDF08
:10015800BCE02B2EBBDFB1E02B2EB8DF13E008E9A3
:100168000A95F1F71A95E1F70000B1E02B2EB0E0FF
:100178003B2EB9DFC3DF26E013E10EEA0A95F1F75B
:100188001A95E1F72A95D1F700000000BBE02B2E65
:10019800B0E03B2EA8DF23E01AE806E50A95F1F760
:1001A8001A95E1F72A95D1F700000000B2E02B2E4E
:1001B800B0E03B2E98DF23E01AE806E50A95F1F750
:1001C8001A95E1F72A95D1F700000000B1E02B2E2F
:1001D8007DDF23E01AE806E50A95F1F71A95E1F7BD
:1001E8002A95D1F700000000BBE02B2EB0E03B2E93
:1001F8007ADF5ADF23E01AE806E50A95F1F71A953F
:10020800E1F72A95D1F700000000BAE02B2EB0E004
:100218003B2E69DF26E013E10EEA0A95F1F71A95FD
:10022800E1F72A95D1F700000000BBE02B2EB0E0E3
:100238003B2E59DF23E01AE806E50A95F1F71A95EF
:10024800E1F72A95D1F700000000B2E02B2EB0E0CC
:100258003B2E49DFB1E02B2E39DF23E01AE806E513
:100268000A95F1F71A95E1F72A95D1F700000000F1
:1002780045DF23E01AE806E50A95F1F71A95E1F754
:100288002A95D1F700000000BBE02B2EB0E03B2EF2
:100298002ADF23E01AE806E50A95F1F71A95E1F74F
:1002A8002A95D1F700000000222433241CDF26E021
:1002B80013E10EEA0A95F1F71A95E1F72A95D1F7B5
:1002C80000000000B1E02B2E01DFBBE02B2EB0E0D8
:1002D8003B2E09DF23E01AE806E50A95F1F71A959F
:1002E800E1F72A95D1F700000000B9E02B2EB0E025
:1002F8003B2EF9DED9DE26E013E10EEA0A95F1F786
:100308001A95E1F72A95D1F700000000BBE02B2EE3
:10031800B0E03B2EE8DE23E01AE806E50A95F1F79F
:100328001A95E1F72A95D1F700000000B7E02B2EC7
:10033800B0E03B2ED8DE23E01AE806E50A95F1F78F
:100348001A95E1F72A95D1F700000000B1E02B2EAD
:10035800BDDE23E01AE806E50A95F1F71A95E1F7FC
:100368002A95D1F700000000BBE02B2EB0E03B2E11
:10037800BADEC4DE23E01AE806E50A95F1F71A9515
:10038800E1F72A95D1F700000000B8E02B2EB0E085
:100398003B2EA9DE26E013E10EEA0A95F1F71A953D
:1003A800E1F72A95D1F700000000BBE02B2EB0E062
:1003B8003B2E99DE23E01AE806E50A95F1F71A952F
:1003C800E1F72A95D1F700000000BAE02B2EB0E043
:1003D8003B2E89DEB1E02B2E79DE23E01AE806E514
:1003E8000A95F1F71A95E1F72A95D1F70000000070
:1003F8005BDE23E01AE806E50A95F1F71A95E1F7BE
:100408002A95D1F700000000BBE02B2EB0E03B2E70
:100418006ADE23E01AE806E50A95F1F71A95E1F78E
:100428002A95D1F700000000B1E02B2EB0E03B2E5A
:100438005ADE26E013E10EEA0A95F1F71A95E1F77C
:100448002A95D1F700000000B1E02B2E3FDEBBE07B
:100458002B2EB0E03B2E47DE23E01AE806E50A958E
:10046800F1F71A95E1F72A95D1F7000000007DCE43
:060478003F902F90FFCF22
:1000D40022BAB0E0B5BBB0E4B5BB0000B0E0B5BB3C
:0A00E40001E20A95F1F7000008950B
:1000EE009101220F331F08E710E0F901E00FF11F15
:0600FE0000810BBB089518
:100104002F923F92B0E62B2EB0E03B2EAEDFB0EC48
:100114002B2EDEDFB0E92B2EB0E03B2EA6DF3F9086
:040124002F9008957B
:10006E0020E030E0F901E20DF31D0081003099F03F
:10007E00F901E20DF31D00813F932F933F922F92D2
:10008E00202EE1DF2F903F902F913F9189010F5F3E
:08009E001F4F9801E7CF089500
:1000540022BAB1E0B5BBB1E4B5BB0000B1E0B5BBB9
:0A00640001E20A95F1F7000008958B
:1000B0002F923F92BEE92B2EB0E03B2ED8DFB0EC62
:1000C0002B2E08D0BEE62B2EB0E03B2ED0DF3F908B
:0400D0002F900895D0
:0A00A60005900D920197E1F708950F
:1004C600A0E6B0E0EEE7F4E088E490E00E94530096
:0204D600089587
:0E047E002020417368696B2041686D65640041
:0A048C002020202020203133310011
:1004960040007900240030001900120002007800A4
:0804A600000010003F00FF0000
:0E04AE0020202031322D32303937382D3100E8
:0A04BC00202020202020435345009B
:00000001FF
