:100000000C9465000C9400000C9400000C9400000B
:100010000C9400000C9400000C9400000C94000060
:100020000C9400000C9400000C9400000C94000050
:100030000C9400000C9400000C9400000C94000040
:100040000C9400000C9400000C9400000C94000030
:040050000C9400000C
:1000CA00BFE5BDBFB8E0BEBF0E94F4012F923F92C8
:1000DA00BFEFBABBBFEFB4BBBFEFB1BB13E008E9D8
:1000EA000A95F1F71A95E1F70000B8E32B2EDBDF4A
:1000FA00B1E02B2ED8DF13E008E90A95F1F71A953B
:10010A00E1F70000B6E0BBBB26E013E10EEA0A9570
:10011A00F1F71A95E1F72A95D1F700000000B0E04F
:10012A00BBBB23E01AE806E50A95F1F71A95E1F751
:10013A002A95D1F700000000BBE5BBBB26E013E11E
:10014A000EEA0A95F1F71A95E1F72A95D1F7000018
:10015A000000B0E0BBBB23E01AE806E50A95F1F718
:10016A001A95E1F72A95D1F700000000B0E4BBBB6D
:10017A0026E013E10EEA0A95F1F71A95E1F72A95B6
:10018A00D1F700000000B0E0BBBB23E01AE806E5A7
:10019A000A95F1F71A95E1F72A95D1F700000000C0
:1001AA00BBE5BBBB26E013E10EEA0A95F1F71A9507
:1001BA00E1F72A95D1F700000000B0E0BBBB23E0CD
:1001CA001AE806E50A95F1F71A95E1F72A95D1F7A3
:1001DA0000000000B6E0BBBB26E013E10EEA0A9578
:1001EA00F1F71A95E1F72A95D1F700000000B0E07F
:1001FA00BBBB23E01AE806E50A95F1F71A95E1F781
:10020A002A95D1F700000000BFE3BBBB26E013E14B
:10021A000EEA0A95F1F71A95E1F72A95D1F7000047
:10022A000000B0E0BBBB23E01AE806E50A95F1F747
:10023A001A95E1F72A95D1F700000000B7E0BBBB99
:10024A0026E013E10EEA0A95F1F71A95E1F72A95E5
:10025A00D1F700000000B0E0BBBB23E01AE806E5D6
:10026A000A95F1F71A95E1F72A95D1F700000000EF
:10027A00BBE5BBBB26E013E10EEA0A95F1F71A9536
:10028A00E1F72A95D1F700000000B0E0BBBB23E0FC
:10029A001AE806E50A95F1F71A95E1F72A95D1F7D2
:1002AA0000000000B0E4BBBB26E013E10EEA0A95A9
:1002BA00F1F71A95E1F72A95D1F700000000B0E0AE
:1002CA00BBBB23E01AE806E50A95F1F71A95E1F7B0
:1002DA002A95D1F700000000B6E0BBBB26E013E187
:1002EA000EEA0A95F1F71A95E1F72A95D1F7000077
:1002FA000000B0E0BBBB23E01AE806E50A95F1F777
:10030A001A95E1F72A95D1F700000000B0E62B2EE6
:10031A00B0E03B2EACDEB0EC2B2EC5DEB5E72B2EC3
:10032A00B0E03B2EA4DE2BE016E20EE50A95F1F7CB
:10033A001A95E1F72A95D1F700000000B1E02B2EBB
:10034A00B2DE23E01AE806E50A95F1F71A95E1F715
:10035A002A95D1F700000000BAE82B2EB0E03B2E18
:10036A0086DEB0EC2B2E9FDEB2E82B2EB0E03B2EC1
:10037A007EDE2BE016E20EE50A95F1F71A95E1F713
:10038A002A95D1F700000000B1E02B2E8CDE23E085
:10039A001AE806E50A95F1F71A95E1F72A95D1F7D1
:0C03AA0000000000AFCE3F902F90FFCF6E
:1000B00022BAB0E0B5BBB0E4B5BB0000B0E0B5BB60
:0A00C00001E20A95F1F7000008952F
:1000780020E030E0F901E20DF31D0081003099F035
:10008800F901E20DF31D00813F932F933F922F92C8
:10009800202EDCDF2F903F902F913F9189010F5F39
:0800A8001F4F9801E7CF0895F6
:1000540022BAB1E0B5BBB1E4B5BB0000B1E0B5BBB9
:0A00640001E20A95F1F7000008958B
:0A006E0005900D920197E1F7089547
:1003E800A0E6B0E0E6EBF3E082E390E00E9437009D
:0203F800089566
:1003B6005461736E65656D2041686D656420547582
:0503C600726173680084
:0D03CB00202031322D32313037322D3100FB
:0803D800202020203131390002
:0803E0002020202045454500C6
:00000001FF
